{
  "_format": "hh-sol-artifact-1",
  "contractName": "CoffeePortal",
  "sourceName": "contracts/CoffeePortal.sol",
  "abi": [
    {
      "inputs": [],
      "stateMutability": "payable",
      "type": "constructor"
    },
    {
      "anonymous": false,
      "inputs": [
        {
          "indexed": true,
          "internalType": "address",
          "name": "from",
          "type": "address"
        },
        {
          "indexed": false,
          "internalType": "uint256",
          "name": "timestamp",
          "type": "uint256"
        },
        {
          "indexed": false,
          "internalType": "string",
          "name": "message",
          "type": "string"
        },
        {
          "indexed": false,
          "internalType": "string",
          "name": "name",
          "type": "string"
        }
      ],
      "name": "NewCoffee",
      "type": "event"
    },
    {
      "inputs": [
        {
          "internalType": "string",
          "name": "_message",
          "type": "string"
        },
        {
          "internalType": "string",
          "name": "_name",
          "type": "string"
        }
      ],
      "name": "buyCoffee",
      "outputs": [],
      "stateMutability": "payable",
      "type": "function"
    },
    {
      "inputs": [],
      "name": "getAllCoffee",
      "outputs": [
        {
          "components": [
            {
              "internalType": "address",
              "name": "giver",
              "type": "address"
            },
            {
              "internalType": "string",
              "name": "message",
              "type": "string"
            },
            {
              "internalType": "string",
              "name": "name",
              "type": "string"
            },
            {
              "internalType": "uint256",
              "name": "timestamp",
              "type": "uint256"
            }
          ],
          "internalType": "struct CoffeePortal.Coffee[]",
          "name": "",
          "type": "tuple[]"
        }
      ],
      "stateMutability": "view",
      "type": "function"
    },
    {
      "inputs": [],
      "name": "getTotalCoffee",
      "outputs": [
        {
          "internalType": "uint256",
          "name": "",
          "type": "uint256"
        }
      ],
      "stateMutability": "view",
      "type": "function"
    },
    {
      "inputs": [],
      "name": "owner",
      "outputs": [
        {
          "internalType": "address payable",
          "name": "",
          "type": "address"
        }
      ],
      "stateMutability": "view",
      "type": "function"
    },
    {
      "inputs": [],
      "name": "withdraw",
      "outputs": [],
      "stateMutability": "payable",
      "type": "function"
    }
  ],
  "bytecode": "0x60806040526200004f6040518060400160405280601281526020017f596f2120536d61727420436f6e747261637400000000000000000000000000008152506200009660201b620007b01760201c565b33600160006101000a81548173ffffffffffffffffffffffffffffffffffffffff021916908373ffffffffffffffffffffffffffffffffffffffff1602179055506200022a565b6200013681604051602401620000ad9190620001a3565b6040516020818303038152906040527f41304fac000000000000000000000000000000000000000000000000000000007bffffffffffffffffffffffffffffffffffffffffffffffffffffffff19166020820180517bffffffffffffffffffffffffffffffffffffffffffffffffffffffff83818316178352505050506200013960201b60201c565b50565b60008151905060006a636f6e736f6c652e6c6f679050602083016000808483855afa5050505050565b60006200016f82620001c7565b6200017b8185620001d2565b93506200018d818560208601620001e3565b620001988162000219565b840191505092915050565b60006020820190508181036000830152620001bf818462000162565b905092915050565b600081519050919050565b600082825260208201905092915050565b60005b8381101562000203578082015181840152602081019050620001e6565b8381111562000213576000848401525b50505050565b6000601f19601f8301169050919050565b61132b806200023a6000396000f3fe60806040526004361061004a5760003560e01c8063204206e11461004f5780633ccfd60b1461006b5780634839ee3f146100755780638da5cb5b146100a0578063d386beca146100cb575b600080fd5b61006960048036038101906100649190610ab5565b6100f6565b005b6100736103b2565b005b34801561008157600080fd5b5061008a61055c565b6040516100979190610f17565b60405180910390f35b3480156100ac57600080fd5b506100b56105a7565b6040516100c29190610db8565b60405180910390f35b3480156100d757600080fd5b506100e06105cd565b6040516100ed9190610dd3565b60405180910390f35b600066038d7ea4c68000905080341015610145576040517f08c379a000000000000000000000000000000000000000000000000000000000815260040161013c90610e77565b60405180910390fd5b6001600080828254610157919061103e565b9250508190555061019d6040518060400160405280601a81526020017f257320686173206a7573742073656e74206120636f666665652100000000000081525033610849565b600260405180608001604052803373ffffffffffffffffffffffffffffffffffffffff16815260200185815260200184815260200142815250908060018154018082558091505060019003906000526020600020906004020160009091909190915060008201518160000160006101000a81548173ffffffffffffffffffffffffffffffffffffffff021916908373ffffffffffffffffffffffffffffffffffffffff16021790555060208201518160010190805190602001906102629291906109aa565b50604082015181600201908051906020019061027f9291906109aa565b506060820151816003015550506000600160009054906101000a900473ffffffffffffffffffffffffffffffffffffffff1673ffffffffffffffffffffffffffffffffffffffff16346040516102d490610da3565b60006040518083038185875af1925050503d8060008114610311576040519150601f19603f3d011682016040523d82523d6000602084013e610316565b606091505b505090508061035a576040517f08c379a000000000000000000000000000000000000000000000000000000000815260040161035190610e97565b60405180910390fd5b3373ffffffffffffffffffffffffffffffffffffffff167f5d202edb9ac9aca913189e3c829f7fdbba23859e91379c70ecf7874fe39632a74286866040516103a493929190610f32565b60405180910390a250505050565b3373ffffffffffffffffffffffffffffffffffffffff16600160009054906101000a900473ffffffffffffffffffffffffffffffffffffffff1673ffffffffffffffffffffffffffffffffffffffff1614610442576040517f08c379a000000000000000000000000000000000000000000000000000000000815260040161043990610eb7565b60405180910390fd5b60004790506000811161048a576040517f08c379a000000000000000000000000000000000000000000000000000000000815260040161048190610ed7565b60405180910390fd5b6000600160009054906101000a900473ffffffffffffffffffffffffffffffffffffffff1673ffffffffffffffffffffffffffffffffffffffff16826040516104d290610da3565b60006040518083038185875af1925050503d806000811461050f576040519150601f19603f3d011682016040523d82523d6000602084013e610514565b606091505b5050905080610558576040517f08c379a000000000000000000000000000000000000000000000000000000000815260040161054f90610ef7565b60405180910390fd5b5050565b600061059f6040518060400160405280602081526020017f5765206861766520256420746f74616c20636f666665652072656369657665648152506000546108e5565b600054905090565b600160009054906101000a900473ffffffffffffffffffffffffffffffffffffffff1681565b60606002805480602002602001604051908101604052809291908181526020016000905b828210156107a757838290600052602060002090600402016040518060800160405290816000820160009054906101000a900473ffffffffffffffffffffffffffffffffffffffff1673ffffffffffffffffffffffffffffffffffffffff1673ffffffffffffffffffffffffffffffffffffffff16815260200160018201805461067a90611124565b80601f01602080910402602001604051908101604052809291908181526020018280546106a690611124565b80156106f35780601f106106c8576101008083540402835291602001916106f3565b820191906000526020600020905b8154815290600101906020018083116106d657829003601f168201915b5050505050815260200160028201805461070c90611124565b80601f016020809104026020016040519081016040528092919081815260200182805461073890611124565b80156107855780601f1061075a57610100808354040283529160200191610785565b820191906000526020600020905b81548152906001019060200180831161076857829003601f168201915b50505050508152602001600382015481525050815260200190600101906105f1565b50505050905090565b610846816040516024016107c49190610df5565b6040516020818303038152906040527f41304fac000000000000000000000000000000000000000000000000000000007bffffffffffffffffffffffffffffffffffffffffffffffffffffffff19166020820180517bffffffffffffffffffffffffffffffffffffffffffffffffffffffff8381831617835250505050610981565b50565b6108e1828260405160240161085f929190610e17565b6040516020818303038152906040527f319af333000000000000000000000000000000000000000000000000000000007bffffffffffffffffffffffffffffffffffffffffffffffffffffffff19166020820180517bffffffffffffffffffffffffffffffffffffffffffffffffffffffff8381831617835250505050610981565b5050565b61097d82826040516024016108fb929190610e47565b6040516020818303038152906040527f9710a9d0000000000000000000000000000000000000000000000000000000007bffffffffffffffffffffffffffffffffffffffffffffffffffffffff19166020820180517bffffffffffffffffffffffffffffffffffffffffffffffffffffffff8381831617835250505050610981565b5050565b60008151905060006a636f6e736f6c652e6c6f679050602083016000808483855afa5050505050565b8280546109b690611124565b90600052602060002090601f0160209004810192826109d85760008555610a1f565b82601f106109f157805160ff1916838001178555610a1f565b82800160010185558215610a1f579182015b82811115610a1e578251825591602001919060010190610a03565b5b509050610a2c9190610a30565b5090565b5b80821115610a49576000816000905550600101610a31565b5090565b6000610a60610a5b84610f9c565b610f77565b905082815260208101848484011115610a7857600080fd5b610a838482856110e2565b509392505050565b600082601f830112610a9c57600080fd5b8135610aac848260208601610a4d565b91505092915050565b60008060408385031215610ac857600080fd5b600083013567ffffffffffffffff811115610ae257600080fd5b610aee85828601610a8b565b925050602083013567ffffffffffffffff811115610b0b57600080fd5b610b1785828601610a8b565b9150509250929050565b6000610b2d8383610d1b565b905092915050565b610b3e816110a6565b82525050565b610b4d81611094565b82525050565b610b5c81611094565b82525050565b6000610b6d82610fdd565b610b778185611000565b935083602082028501610b8985610fcd565b8060005b85811015610bc55784840389528151610ba68582610b21565b9450610bb183610ff3565b925060208a01995050600181019050610b8d565b50829750879550505050505092915050565b6000610be282610fe8565b610bec818561101c565b9350610bfc8185602086016110f1565b610c0581611214565b840191505092915050565b6000610c1b82610fe8565b610c25818561102d565b9350610c358185602086016110f1565b610c3e81611214565b840191505092915050565b6000610c56601b8361102d565b9150610c6182611225565b602082019050919050565b6000610c7960148361102d565b9150610c848261124e565b602082019050919050565b6000610c9c60128361102d565b9150610ca782611277565b602082019050919050565b6000610cbf60198361102d565b9150610cca826112a0565b602082019050919050565b6000610ce2600083611011565b9150610ced826112c9565b600082019050919050565b6000610d0560108361102d565b9150610d10826112cc565b602082019050919050565b6000608083016000830151610d336000860182610b44565b5060208301518482036020860152610d4b8282610bd7565b91505060408301518482036040860152610d658282610bd7565b9150506060830151610d7a6060860182610d85565b508091505092915050565b610d8e816110d8565b82525050565b610d9d816110d8565b82525050565b6000610dae82610cd5565b9150819050919050565b6000602082019050610dcd6000830184610b35565b92915050565b60006020820190508181036000830152610ded8184610b62565b905092915050565b60006020820190508181036000830152610e0f8184610c10565b905092915050565b60006040820190508181036000830152610e318185610c10565b9050610e406020830184610b53565b9392505050565b60006040820190508181036000830152610e618185610c10565b9050610e706020830184610d94565b9392505050565b60006020820190508181036000830152610e9081610c49565b9050919050565b60006020820190508181036000830152610eb081610c6c565b9050919050565b60006020820190508181036000830152610ed081610c8f565b9050919050565b60006020820190508181036000830152610ef081610cb2565b9050919050565b60006020820190508181036000830152610f1081610cf8565b9050919050565b6000602082019050610f2c6000830184610d94565b92915050565b6000606082019050610f476000830186610d94565b8181036020830152610f598185610c10565b90508181036040830152610f6d8184610c10565b9050949350505050565b6000610f81610f92565b9050610f8d8282611156565b919050565b6000604051905090565b600067ffffffffffffffff821115610fb757610fb66111e5565b5b610fc082611214565b9050602081019050919050565b6000819050602082019050919050565b600081519050919050565b600081519050919050565b6000602082019050919050565b600082825260208201905092915050565b600081905092915050565b600082825260208201905092915050565b600082825260208201905092915050565b6000611049826110d8565b9150611054836110d8565b9250827fffffffffffffffffffffffffffffffffffffffffffffffffffffffffffffffff0382111561108957611088611187565b5b828201905092915050565b600061109f826110b8565b9050919050565b60006110b1826110b8565b9050919050565b600073ffffffffffffffffffffffffffffffffffffffff82169050919050565b6000819050919050565b82818337600083830152505050565b60005b8381101561110f5780820151818401526020810190506110f4565b8381111561111e576000848401525b50505050565b6000600282049050600182168061113c57607f821691505b602082108114156111505761114f6111b6565b5b50919050565b61115f82611214565b810181811067ffffffffffffffff8211171561117e5761117d6111e5565b5b80604052505050565b7f4e487b7100000000000000000000000000000000000000000000000000000000600052601160045260246000fd5b7f4e487b7100000000000000000000000000000000000000000000000000000000600052602260045260246000fd5b7f4e487b7100000000000000000000000000000000000000000000000000000000600052604160045260246000fd5b6000601f19601f8301169050919050565b7f496e73756666696369656e742045746865722070726f76696465640000000000600082015250565b7f4661696c656420746f2073656e64206d6f6e6579000000000000000000000000600082015250565b7f54686973206973206e6f74206f776e65722e0000000000000000000000000000600082015250565b7f4e6f206574686572206c65667420746f20776974686472617700000000000000600082015250565b50565b7f5472616e73666572206661696c65642e0000000000000000000000000000000060008201525056fea264697066735822122000031a92d0344024dc52fca452e2defb9cf655b4600b6a5acd2b88b72a4e5b0d64736f6c63430008040033",
  "linkReferences": {},
  "deployedLinkReferences": {}
}